{
  "_format": "hh-sol-artifact-1",
  "contractName": "BorrowYourCar",
  "sourceName": "contracts/BorrowYourCar.sol",
  "abi": [
    {
      "inputs": [
        {
          "internalType": "address",
          "name": "constractAddress",
          "type": "address"
        }
      ],
      "stateMutability": "nonpayable",
      "type": "constructor"
    },
    {
      "inputs": [
        {
          "internalType": "address",
          "name": "sender",
          "type": "address"
        },
        {
          "internalType": "uint256",
          "name": "tokenId",
          "type": "uint256"
        },
        {
          "internalType": "address",
          "name": "owner",
          "type": "address"
        }
      ],
      "name": "ERC721IncorrectOwner",
      "type": "error"
    },
    {
      "inputs": [
        {
          "internalType": "address",
          "name": "operator",
          "type": "address"
        },
        {
          "internalType": "uint256",
          "name": "tokenId",
          "type": "uint256"
        }
      ],
      "name": "ERC721InsufficientApproval",
      "type": "error"
    },
    {
      "inputs": [
        {
          "internalType": "address",
          "name": "approver",
          "type": "address"
        }
      ],
      "name": "ERC721InvalidApprover",
      "type": "error"
    },
    {
      "inputs": [
        {
          "internalType": "address",
          "name": "operator",
          "type": "address"
        }
      ],
      "name": "ERC721InvalidOperator",
      "type": "error"
    },
    {
      "inputs": [
        {
          "internalType": "address",
          "name": "owner",
          "type": "address"
        }
      ],
      "name": "ERC721InvalidOwner",
      "type": "error"
    },
    {
      "inputs": [
        {
          "internalType": "address",
          "name": "receiver",
          "type": "address"
        }
      ],
      "name": "ERC721InvalidReceiver",
      "type": "error"
    },
    {
      "inputs": [
        {
          "internalType": "address",
          "name": "sender",
          "type": "address"
        }
      ],
      "name": "ERC721InvalidSender",
      "type": "error"
    },
    {
      "inputs": [
        {
          "internalType": "uint256",
          "name": "tokenId",
          "type": "uint256"
        }
      ],
      "name": "ERC721NonexistentToken",
      "type": "error"
    },
    {
      "anonymous": false,
      "inputs": [
        {
          "indexed": true,
          "internalType": "address",
          "name": "owner",
          "type": "address"
        },
        {
          "indexed": true,
          "internalType": "address",
          "name": "approved",
          "type": "address"
        },
        {
          "indexed": true,
          "internalType": "uint256",
          "name": "tokenId",
          "type": "uint256"
        }
      ],
      "name": "Approval",
      "type": "event"
    },
    {
      "anonymous": false,
      "inputs": [
        {
          "indexed": true,
          "internalType": "address",
          "name": "owner",
          "type": "address"
        },
        {
          "indexed": true,
          "internalType": "address",
          "name": "operator",
          "type": "address"
        },
        {
          "indexed": false,
          "internalType": "bool",
          "name": "approved",
          "type": "bool"
        }
      ],
      "name": "ApprovalForAll",
      "type": "event"
    },
    {
      "anonymous": false,
      "inputs": [
        {
          "indexed": true,
          "internalType": "address",
          "name": "from",
          "type": "address"
        },
        {
          "indexed": true,
          "internalType": "address",
          "name": "to",
          "type": "address"
        },
        {
          "indexed": true,
          "internalType": "uint256",
          "name": "tokenId",
          "type": "uint256"
        }
      ],
      "name": "Transfer",
      "type": "event"
    },
    {
      "inputs": [],
      "name": "ERC20Contract",
      "outputs": [
        {
          "internalType": "contract MyERC20",
          "name": "",
          "type": "address"
        }
      ],
      "stateMutability": "view",
      "type": "function"
    },
    {
      "inputs": [
        {
          "internalType": "address",
          "name": "to",
          "type": "address"
        },
        {
          "internalType": "uint256",
          "name": "tokenId",
          "type": "uint256"
        }
      ],
      "name": "approve",
      "outputs": [],
      "stateMutability": "nonpayable",
      "type": "function"
    },
    {
      "inputs": [
        {
          "internalType": "address",
          "name": "owner",
          "type": "address"
        }
      ],
      "name": "balanceOf",
      "outputs": [
        {
          "internalType": "uint256",
          "name": "",
          "type": "uint256"
        }
      ],
      "stateMutability": "view",
      "type": "function"
    },
    {
      "inputs": [
        {
          "internalType": "uint256",
          "name": "carTokenId",
          "type": "uint256"
        },
        {
          "internalType": "string",
          "name": "returnDate",
          "type": "string"
        },
        {
          "internalType": "uint256",
          "name": "price",
          "type": "uint256"
        },
        {
          "internalType": "address",
          "name": "account",
          "type": "address"
        }
      ],
      "name": "borrowACar",
      "outputs": [],
      "stateMutability": "nonpayable",
      "type": "function"
    },
    {
      "inputs": [],
      "name": "carCnt",
      "outputs": [
        {
          "internalType": "uint32",
          "name": "",
          "type": "uint32"
        }
      ],
      "stateMutability": "view",
      "type": "function"
    },
    {
      "inputs": [
        {
          "internalType": "uint256",
          "name": "",
          "type": "uint256"
        }
      ],
      "name": "cars",
      "outputs": [
        {
          "internalType": "uint32",
          "name": "tokenId",
          "type": "uint32"
        },
        {
          "internalType": "address",
          "name": "owner",
          "type": "address"
        },
        {
          "internalType": "address",
          "name": "borrower",
          "type": "address"
        },
        {
          "internalType": "string",
          "name": "returnDate",
          "type": "string"
        },
        {
          "internalType": "uint256",
          "name": "price",
          "type": "uint256"
        }
      ],
      "stateMutability": "view",
      "type": "function"
    },
    {
      "inputs": [],
      "name": "getAllCars",
      "outputs": [
        {
          "components": [
            {
              "internalType": "uint32",
              "name": "tokenId",
              "type": "uint32"
            },
            {
              "internalType": "address",
              "name": "owner",
              "type": "address"
            },
            {
              "internalType": "address",
              "name": "borrower",
              "type": "address"
            },
            {
              "internalType": "string",
              "name": "returnDate",
              "type": "string"
            },
            {
              "internalType": "uint256",
              "name": "price",
              "type": "uint256"
            }
          ],
          "internalType": "struct BorrowYourCar.Car[]",
          "name": "",
          "type": "tuple[]"
        }
      ],
      "stateMutability": "view",
      "type": "function"
    },
    {
      "inputs": [
        {
          "internalType": "uint256",
          "name": "tokenId",
          "type": "uint256"
        }
      ],
      "name": "getApproved",
      "outputs": [
        {
          "internalType": "address",
          "name": "",
          "type": "address"
        }
      ],
      "stateMutability": "view",
      "type": "function"
    },
    {
      "inputs": [
        {
          "internalType": "address",
          "name": "account",
          "type": "address"
        }
      ],
      "name": "getCarsCanBorrow",
      "outputs": [
        {
          "components": [
            {
              "internalType": "uint32",
              "name": "tokenId",
              "type": "uint32"
            },
            {
              "internalType": "address",
              "name": "owner",
              "type": "address"
            },
            {
              "internalType": "address",
              "name": "borrower",
              "type": "address"
            },
            {
              "internalType": "string",
              "name": "returnDate",
              "type": "string"
            },
            {
              "internalType": "uint256",
              "name": "price",
              "type": "uint256"
            }
          ],
          "internalType": "struct BorrowYourCar.Car[]",
          "name": "",
          "type": "tuple[]"
        }
      ],
      "stateMutability": "view",
      "type": "function"
    },
    {
      "inputs": [
        {
          "internalType": "address",
          "name": "account",
          "type": "address"
        }
      ],
      "name": "getMyCars",
      "outputs": [
        {
          "components": [
            {
              "internalType": "uint32",
              "name": "tokenId",
              "type": "uint32"
            },
            {
              "internalType": "address",
              "name": "owner",
              "type": "address"
            },
            {
              "internalType": "address",
              "name": "borrower",
              "type": "address"
            },
            {
              "internalType": "string",
              "name": "returnDate",
              "type": "string"
            },
            {
              "internalType": "uint256",
              "name": "price",
              "type": "uint256"
            }
          ],
          "internalType": "struct BorrowYourCar.Car[]",
          "name": "",
          "type": "tuple[]"
        }
      ],
      "stateMutability": "view",
      "type": "function"
    },
    {
      "inputs": [
        {
          "internalType": "address",
          "name": "account",
          "type": "address"
        }
      ],
      "name": "getMyborrowedCars",
      "outputs": [
        {
          "components": [
            {
              "internalType": "uint32",
              "name": "tokenId",
              "type": "uint32"
            },
            {
              "internalType": "address",
              "name": "owner",
              "type": "address"
            },
            {
              "internalType": "address",
              "name": "borrower",
              "type": "address"
            },
            {
              "internalType": "string",
              "name": "returnDate",
              "type": "string"
            },
            {
              "internalType": "uint256",
              "name": "price",
              "type": "uint256"
            }
          ],
          "internalType": "struct BorrowYourCar.Car[]",
          "name": "",
          "type": "tuple[]"
        }
      ],
      "stateMutability": "view",
      "type": "function"
    },
    {
      "inputs": [
        {
          "internalType": "address",
          "name": "owner",
          "type": "address"
        },
        {
          "internalType": "address",
          "name": "operator",
          "type": "address"
        }
      ],
      "name": "isApprovedForAll",
      "outputs": [
        {
          "internalType": "bool",
          "name": "",
          "type": "bool"
        }
      ],
      "stateMutability": "view",
      "type": "function"
    },
    {
      "inputs": [
        {
          "internalType": "address",
          "name": "account",
          "type": "address"
        }
      ],
      "name": "mintCarNFT",
      "outputs": [],
      "stateMutability": "nonpayable",
      "type": "function"
    },
    {
      "inputs": [],
      "name": "name",
      "outputs": [
        {
          "internalType": "string",
          "name": "",
          "type": "string"
        }
      ],
      "stateMutability": "view",
      "type": "function"
    },
    {
      "inputs": [
        {
          "internalType": "uint256",
          "name": "tokenId",
          "type": "uint256"
        }
      ],
      "name": "ownerOf",
      "outputs": [
        {
          "internalType": "address",
          "name": "",
          "type": "address"
        }
      ],
      "stateMutability": "view",
      "type": "function"
    },
    {
      "inputs": [
        {
          "internalType": "address",
          "name": "from",
          "type": "address"
        },
        {
          "internalType": "address",
          "name": "to",
          "type": "address"
        },
        {
          "internalType": "uint256",
          "name": "tokenId",
          "type": "uint256"
        }
      ],
      "name": "safeTransferFrom",
      "outputs": [],
      "stateMutability": "nonpayable",
      "type": "function"
    },
    {
      "inputs": [
        {
          "internalType": "address",
          "name": "from",
          "type": "address"
        },
        {
          "internalType": "address",
          "name": "to",
          "type": "address"
        },
        {
          "internalType": "uint256",
          "name": "tokenId",
          "type": "uint256"
        },
        {
          "internalType": "bytes",
          "name": "data",
          "type": "bytes"
        }
      ],
      "name": "safeTransferFrom",
      "outputs": [],
      "stateMutability": "nonpayable",
      "type": "function"
    },
    {
      "inputs": [
        {
          "internalType": "address",
          "name": "operator",
          "type": "address"
        },
        {
          "internalType": "bool",
          "name": "approved",
          "type": "bool"
        }
      ],
      "name": "setApprovalForAll",
      "outputs": [],
      "stateMutability": "nonpayable",
      "type": "function"
    },
    {
      "inputs": [
        {
          "internalType": "bytes4",
          "name": "interfaceId",
          "type": "bytes4"
        }
      ],
      "name": "supportsInterface",
      "outputs": [
        {
          "internalType": "bool",
          "name": "",
          "type": "bool"
        }
      ],
      "stateMutability": "view",
      "type": "function"
    },
    {
      "inputs": [],
      "name": "symbol",
      "outputs": [
        {
          "internalType": "string",
          "name": "",
          "type": "string"
        }
      ],
      "stateMutability": "view",
      "type": "function"
    },
    {
      "inputs": [
        {
          "internalType": "uint256",
          "name": "tokenId",
          "type": "uint256"
        }
      ],
      "name": "tokenURI",
      "outputs": [
        {
          "internalType": "string",
          "name": "",
          "type": "string"
        }
      ],
      "stateMutability": "view",
      "type": "function"
    },
    {
      "inputs": [
        {
          "internalType": "address",
          "name": "from",
          "type": "address"
        },
        {
          "internalType": "address",
          "name": "to",
          "type": "address"
        },
        {
          "internalType": "uint256",
          "name": "tokenId",
          "type": "uint256"
        }
      ],
      "name": "transferFrom",
      "outputs": [],
      "stateMutability": "nonpayable",
      "type": "function"
    }
  ],
  "bytecode": "0x60806040526040518060c00160405280606461ffff168152602001607b61ffff16815260200160fa61ffff16815260200161012c61ffff168152602001602861ffff168152602001603261ffff1681525060089060066200006292919062000170565b503480156200007057600080fd5b506040516200418738038062004187833981810160405281019062000096919062000251565b6040518060400160405280600681526020017f4361724e465400000000000000000000000000000000000000000000000000008152506040518060400160405280600381526020017f43415200000000000000000000000000000000000000000000000000000000008152508160009081620001139190620004fd565b508060019081620001259190620004fd565b50505080600760006101000a81548173ffffffffffffffffffffffffffffffffffffffff021916908373ffffffffffffffffffffffffffffffffffffffff16021790555050620005e4565b828054828255906000526020600020908101928215620001b5579160200282015b82811115620001b4578251829061ffff1690559160200191906001019062000191565b5b509050620001c49190620001c8565b5090565b5b80821115620001e3576000816000905550600101620001c9565b5090565b600080fd5b600073ffffffffffffffffffffffffffffffffffffffff82169050919050565b60006200021982620001ec565b9050919050565b6200022b816200020c565b81146200023757600080fd5b50565b6000815190506200024b8162000220565b92915050565b6000602082840312156200026a5762000269620001e7565b5b60006200027a848285016200023a565b91505092915050565b600081519050919050565b7f4e487b7100000000000000000000000000000000000000000000000000000000600052604160045260246000fd5b7f4e487b7100000000000000000000000000000000000000000000000000000000600052602260045260246000fd5b600060028204905060018216806200030557607f821691505b6020821081036200031b576200031a620002bd565b5b50919050565b60008190508160005260206000209050919050565b60006020601f8301049050919050565b600082821b905092915050565b600060088302620003857fffffffffffffffffffffffffffffffffffffffffffffffffffffffffffffffff8262000346565b62000391868362000346565b95508019841693508086168417925050509392505050565b6000819050919050565b6000819050919050565b6000620003de620003d8620003d284620003a9565b620003b3565b620003a9565b9050919050565b6000819050919050565b620003fa83620003bd565b620004126200040982620003e5565b84845462000353565b825550505050565b600090565b620004296200041a565b62000436818484620003ef565b505050565b5b818110156200045e57620004526000826200041f565b6001810190506200043c565b5050565b601f821115620004ad57620004778162000321565b620004828462000336565b8101602085101562000492578190505b620004aa620004a18562000336565b8301826200043b565b50505b505050565b600082821c905092915050565b6000620004d260001984600802620004b2565b1980831691505092915050565b6000620004ed8383620004bf565b9150826002028217905092915050565b620005088262000283565b67ffffffffffffffff8111156200052457620005236200028e565b5b620005308254620002ec565b6200053d82828562000462565b600060209050601f83116001811462000575576000841562000560578287015190505b6200056c8582620004df565b865550620005dc565b601f198416620005858662000321565b60005b82811015620005af5784890151825560018201915060208501945060208101905062000588565b86831015620005cf5784890151620005cb601f891682620004bf565b8355505b6001600288020188555050505b505050505050565b613b9380620005f46000396000f3fe608060405234801561001057600080fd5b50600436106101425760003560e01c80637996f571116100b8578063af4bdb691161007c578063af4bdb691461039b578063b88d4fde146103b7578063c87b56dd146103d3578063e985e9c514610403578063f6e6e23814610433578063f7746e361461045157610142565b80637996f571146102f557806395d89b4114610313578063a22cb46514610331578063a61aed091461034d578063abfe5d571461037d57610142565b80633add07ea1161010a5780633add07ea146101fd57806342842e0e1461022d5780634af8b07d146102495780634af934e1146102795780636352211e1461029557806370a08231146102c557610142565b806301ffc9a71461014757806306fdde0314610177578063081812fc14610195578063095ea7b3146101c557806323b872dd146101e1575b600080fd5b610161600480360381019061015c9190612b3c565b610485565b60405161016e9190612b84565b60405180910390f35b61017f610567565b60405161018c9190612c2f565b60405180910390f35b6101af60048036038101906101aa9190612c87565b6105f9565b6040516101bc9190612cf5565b60405180910390f35b6101df60048036038101906101da9190612d3c565b610615565b005b6101fb60048036038101906101f69190612d7c565b61062b565b005b61021760048036038101906102129190612dcf565b61072d565b6040516102249190612fbb565b60405180910390f35b61024760048036038101906102429190612d7c565b610a9a565b005b610263600480360381019061025e9190612dcf565b610aba565b6040516102709190612fbb565b60405180910390f35b610293600480360381019061028e9190613112565b610e27565b005b6102af60048036038101906102aa9190612c87565b611063565b6040516102bc9190612cf5565b60405180910390f35b6102df60048036038101906102da9190612dcf565b611075565b6040516102ec91906131a4565b60405180910390f35b6102fd61112f565b60405161030a919061321e565b60405180910390f35b61031b611155565b6040516103289190612c2f565b60405180910390f35b61034b60048036038101906103469190613265565b6111e7565b005b61036760048036038101906103629190612dcf565b6111fd565b6040516103749190612fbb565b60405180910390f35b61038561164a565b6040516103929190612fbb565b60405180910390f35b6103b560048036038101906103b09190612dcf565b6118a4565b005b6103d160048036038101906103cc9190613346565b611af0565b005b6103ed60048036038101906103e89190612c87565b611b0d565b6040516103fa9190612c2f565b60405180910390f35b61041d600480360381019061041891906133c9565b611b76565b60405161042a9190612b84565b60405180910390f35b61043b611c0a565b6040516104489190613418565b60405180910390f35b61046b60048036038101906104669190612c87565b611c20565b60405161047c959493929190613433565b60405180910390f35b60007f80ac58cd000000000000000000000000000000000000000000000000000000007bffffffffffffffffffffffffffffffffffffffffffffffffffffffff1916827bffffffffffffffffffffffffffffffffffffffffffffffffffffffff1916148061055057507f5b5e139f000000000000000000000000000000000000000000000000000000007bffffffffffffffffffffffffffffffffffffffffffffffffffffffff1916827bffffffffffffffffffffffffffffffffffffffffffffffffffffffff1916145b80610560575061055f82611d2e565b5b9050919050565b606060008054610576906134bc565b80601f01602080910402602001604051908101604052809291908181526020018280546105a2906134bc565b80156105ef5780601f106105c4576101008083540402835291602001916105ef565b820191906000526020600020905b8154815290600101906020018083116105d257829003601f168201915b5050505050905090565b600061060482611d98565b5061060e82611e20565b9050919050565b6106278282610622611e5d565b611e65565b5050565b600073ffffffffffffffffffffffffffffffffffffffff168273ffffffffffffffffffffffffffffffffffffffff160361069d5760006040517f64a0ae920000000000000000000000000000000000000000000000000000000081526004016106949190612cf5565b60405180910390fd5b60006106b183836106ac611e5d565b611e77565b90508373ffffffffffffffffffffffffffffffffffffffff168173ffffffffffffffffffffffffffffffffffffffff1614610727578382826040517f64283d7b00000000000000000000000000000000000000000000000000000000815260040161071e939291906134ed565b60405180910390fd5b50505050565b60606000805b600760149054906101000a900463ffffffff1663ffffffff168110156107de578373ffffffffffffffffffffffffffffffffffffffff166006600083815260200190815260200160002060010160009054906101000a900473ffffffffffffffffffffffffffffffffffffffff1673ffffffffffffffffffffffffffffffffffffffff16036107cb5781806107c790613553565b9250505b80806107d690613553565b915050610733565b506000808267ffffffffffffffff8111156107fc576107fb612fe7565b5b60405190808252806020026020018201604052801561083557816020015b610822612a6f565b81526020019060019003908161081a5790505b50905060005b600760149054906101000a900463ffffffff1663ffffffff16811015610a8e578573ffffffffffffffffffffffffffffffffffffffff166006600083815260200190815260200160002060010160009054906101000a900473ffffffffffffffffffffffffffffffffffffffff1673ffffffffffffffffffffffffffffffffffffffff1603610a7b57600660008281526020019081526020016000206040518060a00160405290816000820160009054906101000a900463ffffffff1663ffffffff1663ffffffff1681526020016000820160049054906101000a900473ffffffffffffffffffffffffffffffffffffffff1673ffffffffffffffffffffffffffffffffffffffff1673ffffffffffffffffffffffffffffffffffffffff1681526020016001820160009054906101000a900473ffffffffffffffffffffffffffffffffffffffff1673ffffffffffffffffffffffffffffffffffffffff1673ffffffffffffffffffffffffffffffffffffffff1681526020016002820180546109c4906134bc565b80601f01602080910402602001604051908101604052809291908181526020018280546109f0906134bc565b8015610a3d5780601f10610a1257610100808354040283529160200191610a3d565b820191906000526020600020905b815481529060010190602001808311610a2057829003601f168201915b50505050508152602001600382015481525050828480610a5c90613553565b955081518110610a6f57610a6e61359b565b5b60200260200101819052505b8080610a8690613553565b91505061083b565b50809350505050919050565b610ab583838360405180602001604052806000815250611af0565b505050565b60606000805b600760149054906101000a900463ffffffff1663ffffffff16811015610b6b578373ffffffffffffffffffffffffffffffffffffffff166006600083815260200190815260200160002060000160049054906101000a900473ffffffffffffffffffffffffffffffffffffffff1673ffffffffffffffffffffffffffffffffffffffff1603610b58578180610b5490613553565b9250505b8080610b6390613553565b915050610ac0565b506000808267ffffffffffffffff811115610b8957610b88612fe7565b5b604051908082528060200260200182016040528015610bc257816020015b610baf612a6f565b815260200190600190039081610ba75790505b50905060005b600760149054906101000a900463ffffffff1663ffffffff16811015610e1b578573ffffffffffffffffffffffffffffffffffffffff166006600083815260200190815260200160002060000160049054906101000a900473ffffffffffffffffffffffffffffffffffffffff1673ffffffffffffffffffffffffffffffffffffffff1603610e0857600660008281526020019081526020016000206040518060a00160405290816000820160009054906101000a900463ffffffff1663ffffffff1663ffffffff1681526020016000820160049054906101000a900473ffffffffffffffffffffffffffffffffffffffff1673ffffffffffffffffffffffffffffffffffffffff1673ffffffffffffffffffffffffffffffffffffffff1681526020016001820160009054906101000a900473ffffffffffffffffffffffffffffffffffffffff1673ffffffffffffffffffffffffffffffffffffffff1673ffffffffffffffffffffffffffffffffffffffff168152602001600282018054610d51906134bc565b80601f0160208091040260200160405190810160405280929190818152602001828054610d7d906134bc565b8015610dca5780601f10610d9f57610100808354040283529160200191610dca565b820191906000526020600020905b815481529060010190602001808311610dad57829003601f168201915b50505050508152602001600382015481525050828480610de990613553565b955081518110610dfc57610dfb61359b565b5b60200260200101819052505b8080610e1390613553565b915050610bc8565b50809350505050919050565b81600760009054906101000a900473ffffffffffffffffffffffffffffffffffffffff1673ffffffffffffffffffffffffffffffffffffffff166327e235e3836040518263ffffffff1660e01b8152600401610e839190612cf5565b602060405180830381865afa158015610ea0573d6000803e3d6000fd5b505050506040513d601f19601f82011682018060405250810190610ec491906135df565b1015610f05576040517f08c379a0000000000000000000000000000000000000000000000000000000008152600401610efc90613658565b60405180910390fd5b60006006600086815260200190815260200160002060000160049054906101000a900473ffffffffffffffffffffffffffffffffffffffff169050600760009054906101000a900473ffffffffffffffffffffffffffffffffffffffff1673ffffffffffffffffffffffffffffffffffffffff1663beabacc88383866040518463ffffffff1660e01b8152600401610f9f93929190613678565b6020604051808303816000875af1158015610fbe573d6000803e3d6000fd5b505050506040513d601f19601f82011682018060405250810190610fe291906136c4565b50816006600087815260200190815260200160002060010160006101000a81548173ffffffffffffffffffffffffffffffffffffffff021916908373ffffffffffffffffffffffffffffffffffffffff1602179055508360066000878152602001908152602001600020600201908161105b9190613893565b505050505050565b600061106e82611d98565b9050919050565b60008073ffffffffffffffffffffffffffffffffffffffff168273ffffffffffffffffffffffffffffffffffffffff16036110e85760006040517f89c62b640000000000000000000000000000000000000000000000000000000081526004016110df9190612cf5565b60405180910390fd5b600360008373ffffffffffffffffffffffffffffffffffffffff1673ffffffffffffffffffffffffffffffffffffffff168152602001908152602001600020549050919050565b600760009054906101000a900473ffffffffffffffffffffffffffffffffffffffff1681565b606060018054611164906134bc565b80601f0160208091040260200160405190810160405280929190818152602001828054611190906134bc565b80156111dd5780601f106111b2576101008083540402835291602001916111dd565b820191906000526020600020905b8154815290600101906020018083116111c057829003601f168201915b5050505050905090565b6111f96111f2611e5d565b8383612091565b5050565b60606000805b600760149054906101000a900463ffffffff1663ffffffff1681101561131e578373ffffffffffffffffffffffffffffffffffffffff166006600083815260200190815260200160002060000160049054906101000a900473ffffffffffffffffffffffffffffffffffffffff1673ffffffffffffffffffffffffffffffffffffffff16141580156112f75750600073ffffffffffffffffffffffffffffffffffffffff166006600083815260200190815260200160002060010160009054906101000a900473ffffffffffffffffffffffffffffffffffffffff1673ffffffffffffffffffffffffffffffffffffffff16145b1561130b57818061130790613553565b9250505b808061131690613553565b915050611203565b506000808267ffffffffffffffff81111561133c5761133b612fe7565b5b60405190808252806020026020018201604052801561137557816020015b611362612a6f565b81526020019060019003908161135a5790505b50905060005b600760149054906101000a900463ffffffff1663ffffffff1681101561163e578573ffffffffffffffffffffffffffffffffffffffff166006600083815260200190815260200160002060000160049054906101000a900473ffffffffffffffffffffffffffffffffffffffff1673ffffffffffffffffffffffffffffffffffffffff161415801561146f5750600073ffffffffffffffffffffffffffffffffffffffff166006600083815260200190815260200160002060010160009054906101000a900473ffffffffffffffffffffffffffffffffffffffff1673ffffffffffffffffffffffffffffffffffffffff16145b1561162b57600660008281526020019081526020016000206040518060a00160405290816000820160009054906101000a900463ffffffff1663ffffffff1663ffffffff1681526020016000820160049054906101000a900473ffffffffffffffffffffffffffffffffffffffff1673ffffffffffffffffffffffffffffffffffffffff1673ffffffffffffffffffffffffffffffffffffffff1681526020016001820160009054906101000a900473ffffffffffffffffffffffffffffffffffffffff1673ffffffffffffffffffffffffffffffffffffffff1673ffffffffffffffffffffffffffffffffffffffff168152602001600282018054611574906134bc565b80601f01602080910402602001604051908101604052809291908181526020018280546115a0906134bc565b80156115ed5780601f106115c2576101008083540402835291602001916115ed565b820191906000526020600020905b8154815290600101906020018083116115d057829003601f168201915b5050505050815260200160038201548152505082848061160c90613553565b95508151811061161f5761161e61359b565b5b60200260200101819052505b808061163690613553565b91505061137b565b50809350505050919050565b60606000600760149054906101000a900463ffffffff1663ffffffff1667ffffffffffffffff8111156116805761167f612fe7565b5b6040519080825280602002602001820160405280156116b957816020015b6116a6612a6f565b81526020019060019003908161169e5790505b50905060005b600760149054906101000a900463ffffffff1663ffffffff1681101561189c57600660008281526020019081526020016000206040518060a00160405290816000820160009054906101000a900463ffffffff1663ffffffff1663ffffffff1681526020016000820160049054906101000a900473ffffffffffffffffffffffffffffffffffffffff1673ffffffffffffffffffffffffffffffffffffffff1673ffffffffffffffffffffffffffffffffffffffff1681526020016001820160009054906101000a900473ffffffffffffffffffffffffffffffffffffffff1673ffffffffffffffffffffffffffffffffffffffff1673ffffffffffffffffffffffffffffffffffffffff1681526020016002820180546117df906134bc565b80601f016020809104026020016040519081016040528092919081815260200182805461180b906134bc565b80156118585780601f1061182d57610100808354040283529160200191611858565b820191906000526020600020905b81548152906001019060200180831161183b57829003601f168201915b5050505050815260200160038201548152505082828151811061187e5761187d61359b565b5b6020026020010181905250808061189490613553565b9150506116bf565b508091505090565b6040518060a00160405280600760149054906101000a900463ffffffff1663ffffffff1681526020018273ffffffffffffffffffffffffffffffffffffffff168152602001600073ffffffffffffffffffffffffffffffffffffffff1681526020016040518060400160405280600381526020017f2d2d2d0000000000000000000000000000000000000000000000000000000000815250815260200160086006600760149054906101000a900463ffffffff166119629190613994565b63ffffffff16815481106119795761197861359b565b5b906000526020600020015481525060066000600760149054906101000a900463ffffffff1663ffffffff16815260200190815260200160002060008201518160000160006101000a81548163ffffffff021916908363ffffffff16021790555060208201518160000160046101000a81548173ffffffffffffffffffffffffffffffffffffffff021916908373ffffffffffffffffffffffffffffffffffffffff16021790555060408201518160010160006101000a81548173ffffffffffffffffffffffffffffffffffffffff021916908373ffffffffffffffffffffffffffffffffffffffff1602179055506060820151816002019081611a7c9190613893565b5060808201518160030155905050611aac81600760149054906101000a900463ffffffff1663ffffffff16612200565b6007601481819054906101000a900463ffffffff1680929190611ace906139c5565b91906101000a81548163ffffffff021916908363ffffffff1602179055505050565b611afb84848461062b565b611b07848484846122f9565b50505050565b6060611b1882611d98565b506000611b236124b0565b90506000815111611b435760405180602001604052806000815250611b6e565b80611b4d846124c7565b604051602001611b5e929190613a2d565b6040516020818303038152906040525b915050919050565b6000600560008473ffffffffffffffffffffffffffffffffffffffff1673ffffffffffffffffffffffffffffffffffffffff16815260200190815260200160002060008373ffffffffffffffffffffffffffffffffffffffff1673ffffffffffffffffffffffffffffffffffffffff16815260200190815260200160002060009054906101000a900460ff16905092915050565b600760149054906101000a900463ffffffff1681565b60066020528060005260406000206000915090508060000160009054906101000a900463ffffffff16908060000160049054906101000a900473ffffffffffffffffffffffffffffffffffffffff16908060010160009054906101000a900473ffffffffffffffffffffffffffffffffffffffff1690806002018054611ca5906134bc565b80601f0160208091040260200160405190810160405280929190818152602001828054611cd1906134bc565b8015611d1e5780601f10611cf357610100808354040283529160200191611d1e565b820191906000526020600020905b815481529060010190602001808311611d0157829003601f168201915b5050505050908060030154905085565b60007f01ffc9a7000000000000000000000000000000000000000000000000000000007bffffffffffffffffffffffffffffffffffffffffffffffffffffffff1916827bffffffffffffffffffffffffffffffffffffffffffffffffffffffff1916149050919050565b600080611da483612595565b9050600073ffffffffffffffffffffffffffffffffffffffff168173ffffffffffffffffffffffffffffffffffffffff1603611e1757826040517f7e273289000000000000000000000000000000000000000000000000000000008152600401611e0e91906131a4565b60405180910390fd5b80915050919050565b60006004600083815260200190815260200160002060009054906101000a900473ffffffffffffffffffffffffffffffffffffffff169050919050565b600033905090565b611e7283838360016125d2565b505050565b600080611e8384612595565b9050600073ffffffffffffffffffffffffffffffffffffffff168373ffffffffffffffffffffffffffffffffffffffff1614611ec557611ec4818486612797565b5b600073ffffffffffffffffffffffffffffffffffffffff168173ffffffffffffffffffffffffffffffffffffffff1614611f5657611f076000856000806125d2565b6001600360008373ffffffffffffffffffffffffffffffffffffffff1673ffffffffffffffffffffffffffffffffffffffff168152602001908152602001600020600082825403925050819055505b600073ffffffffffffffffffffffffffffffffffffffff168573ffffffffffffffffffffffffffffffffffffffff1614611fd9576001600360008773ffffffffffffffffffffffffffffffffffffffff1673ffffffffffffffffffffffffffffffffffffffff168152602001908152602001600020600082825401925050819055505b846002600086815260200190815260200160002060006101000a81548173ffffffffffffffffffffffffffffffffffffffff021916908373ffffffffffffffffffffffffffffffffffffffff160217905550838573ffffffffffffffffffffffffffffffffffffffff168273ffffffffffffffffffffffffffffffffffffffff167fddf252ad1be2c89b69c2b068fc378daa952ba7f163c4a11628f55a4df523b3ef60405160405180910390a4809150509392505050565b600073ffffffffffffffffffffffffffffffffffffffff168273ffffffffffffffffffffffffffffffffffffffff160361210257816040517f5b08ba180000000000000000000000000000000000000000000000000000000081526004016120f99190612cf5565b60405180910390fd5b80600560008573ffffffffffffffffffffffffffffffffffffffff1673ffffffffffffffffffffffffffffffffffffffff16815260200190815260200160002060008473ffffffffffffffffffffffffffffffffffffffff1673ffffffffffffffffffffffffffffffffffffffff16815260200190815260200160002060006101000a81548160ff0219169083151502179055508173ffffffffffffffffffffffffffffffffffffffff168373ffffffffffffffffffffffffffffffffffffffff167f17307eab39ab6107e8899845ad3d59bd9653f200f220920489ca2b5937696c31836040516121f39190612b84565b60405180910390a3505050565b600073ffffffffffffffffffffffffffffffffffffffff168273ffffffffffffffffffffffffffffffffffffffff16036122725760006040517f64a0ae920000000000000000000000000000000000000000000000000000000081526004016122699190612cf5565b60405180910390fd5b600061228083836000611e77565b9050600073ffffffffffffffffffffffffffffffffffffffff168173ffffffffffffffffffffffffffffffffffffffff16146122f45760006040517f73c6ac6e0000000000000000000000000000000000000000000000000000000081526004016122eb9190612cf5565b60405180910390fd5b505050565b60008373ffffffffffffffffffffffffffffffffffffffff163b11156124aa578273ffffffffffffffffffffffffffffffffffffffff1663150b7a0261233d611e5d565b8685856040518563ffffffff1660e01b815260040161235f9493929190613aa6565b6020604051808303816000875af192505050801561239b57506040513d601f19601f820116820180604052508101906123989190613b07565b60015b61241f573d80600081146123cb576040519150601f19603f3d011682016040523d82523d6000602084013e6123d0565b606091505b50600081510361241757836040517f64a0ae9200000000000000000000000000000000000000000000000000000000815260040161240e9190612cf5565b60405180910390fd5b805181602001fd5b63150b7a0260e01b7bffffffffffffffffffffffffffffffffffffffffffffffffffffffff1916817bffffffffffffffffffffffffffffffffffffffffffffffffffffffff1916146124a857836040517f64a0ae9200000000000000000000000000000000000000000000000000000000815260040161249f9190612cf5565b60405180910390fd5b505b50505050565b606060405180602001604052806000815250905090565b6060600060016124d68461285b565b01905060008167ffffffffffffffff8111156124f5576124f4612fe7565b5b6040519080825280601f01601f1916602001820160405280156125275781602001600182028036833780820191505090505b509050600082602001820190505b60011561258a578080600190039150507f3031323334353637383961626364656600000000000000000000000000000000600a86061a8153600a858161257e5761257d613965565b5b04945060008503612535575b819350505050919050565b60006002600083815260200190815260200160002060009054906101000a900473ffffffffffffffffffffffffffffffffffffffff169050919050565b808061260b5750600073ffffffffffffffffffffffffffffffffffffffff168273ffffffffffffffffffffffffffffffffffffffff1614155b1561273f57600061261b84611d98565b9050600073ffffffffffffffffffffffffffffffffffffffff168373ffffffffffffffffffffffffffffffffffffffff161415801561268657508273ffffffffffffffffffffffffffffffffffffffff168173ffffffffffffffffffffffffffffffffffffffff1614155b801561269957506126978184611b76565b155b156126db57826040517fa9fbf51f0000000000000000000000000000000000000000000000000000000081526004016126d29190612cf5565b60405180910390fd5b811561273d57838573ffffffffffffffffffffffffffffffffffffffff168273ffffffffffffffffffffffffffffffffffffffff167f8c5be1e5ebec7d5bd14f71427d1e84f3dd0314c0f7b2291e5b200ac8c7c3b92560405160405180910390a45b505b836004600085815260200190815260200160002060006101000a81548173ffffffffffffffffffffffffffffffffffffffff021916908373ffffffffffffffffffffffffffffffffffffffff16021790555050505050565b6127a28383836129ae565b61285657600073ffffffffffffffffffffffffffffffffffffffff168373ffffffffffffffffffffffffffffffffffffffff160361281757806040517f7e27328900000000000000000000000000000000000000000000000000000000815260040161280e91906131a4565b60405180910390fd5b81816040517f177e802f00000000000000000000000000000000000000000000000000000000815260040161284d929190613b34565b60405180910390fd5b505050565b600080600090507a184f03e93ff9f4daa797ed6e38ed64bf6a1f01000000000000000083106128b9577a184f03e93ff9f4daa797ed6e38ed64bf6a1f01000000000000000083816128af576128ae613965565b5b0492506040810190505b6d04ee2d6d415b85acef810000000083106128f6576d04ee2d6d415b85acef810000000083816128ec576128eb613965565b5b0492506020810190505b662386f26fc10000831061292557662386f26fc10000838161291b5761291a613965565b5b0492506010810190505b6305f5e100831061294e576305f5e100838161294457612943613965565b5b0492506008810190505b612710831061297357612710838161296957612968613965565b5b0492506004810190505b60648310612996576064838161298c5761298b613965565b5b0492506002810190505b600a83106129a5576001810190505b80915050919050565b60008073ffffffffffffffffffffffffffffffffffffffff168373ffffffffffffffffffffffffffffffffffffffff1614158015612a6657508273ffffffffffffffffffffffffffffffffffffffff168473ffffffffffffffffffffffffffffffffffffffff161480612a275750612a268484611b76565b5b80612a6557508273ffffffffffffffffffffffffffffffffffffffff16612a4d83611e20565b73ffffffffffffffffffffffffffffffffffffffff16145b5b90509392505050565b6040518060a00160405280600063ffffffff168152602001600073ffffffffffffffffffffffffffffffffffffffff168152602001600073ffffffffffffffffffffffffffffffffffffffff16815260200160608152602001600081525090565b6000604051905090565b600080fd5b600080fd5b60007fffffffff0000000000000000000000000000000000000000000000000000000082169050919050565b612b1981612ae4565b8114612b2457600080fd5b50565b600081359050612b3681612b10565b92915050565b600060208284031215612b5257612b51612ada565b5b6000612b6084828501612b27565b91505092915050565b60008115159050919050565b612b7e81612b69565b82525050565b6000602082019050612b996000830184612b75565b92915050565b600081519050919050565b600082825260208201905092915050565b60005b83811015612bd9578082015181840152602081019050612bbe565b60008484015250505050565b6000601f19601f8301169050919050565b6000612c0182612b9f565b612c0b8185612baa565b9350612c1b818560208601612bbb565b612c2481612be5565b840191505092915050565b60006020820190508181036000830152612c498184612bf6565b905092915050565b6000819050919050565b612c6481612c51565b8114612c6f57600080fd5b50565b600081359050612c8181612c5b565b92915050565b600060208284031215612c9d57612c9c612ada565b5b6000612cab84828501612c72565b91505092915050565b600073ffffffffffffffffffffffffffffffffffffffff82169050919050565b6000612cdf82612cb4565b9050919050565b612cef81612cd4565b82525050565b6000602082019050612d0a6000830184612ce6565b92915050565b612d1981612cd4565b8114612d2457600080fd5b50565b600081359050612d3681612d10565b92915050565b60008060408385031215612d5357612d52612ada565b5b6000612d6185828601612d27565b9250506020612d7285828601612c72565b9150509250929050565b600080600060608486031215612d9557612d94612ada565b5b6000612da386828701612d27565b9350506020612db486828701612d27565b9250506040612dc586828701612c72565b9150509250925092565b600060208284031215612de557612de4612ada565b5b6000612df384828501612d27565b91505092915050565b600081519050919050565b600082825260208201905092915050565b6000819050602082019050919050565b600063ffffffff82169050919050565b612e4181612e28565b82525050565b612e5081612cd4565b82525050565b600082825260208201905092915050565b6000612e7282612b9f565b612e7c8185612e56565b9350612e8c818560208601612bbb565b612e9581612be5565b840191505092915050565b612ea981612c51565b82525050565b600060a083016000830151612ec76000860182612e38565b506020830151612eda6020860182612e47565b506040830151612eed6040860182612e47565b5060608301518482036060860152612f058282612e67565b9150506080830151612f1a6080860182612ea0565b508091505092915050565b6000612f318383612eaf565b905092915050565b6000602082019050919050565b6000612f5182612dfc565b612f5b8185612e07565b935083602082028501612f6d85612e18565b8060005b85811015612fa95784840389528151612f8a8582612f25565b9450612f9583612f39565b925060208a01995050600181019050612f71565b50829750879550505050505092915050565b60006020820190508181036000830152612fd58184612f46565b905092915050565b600080fd5b600080fd5b7f4e487b7100000000000000000000000000000000000000000000000000000000600052604160045260246000fd5b61301f82612be5565b810181811067ffffffffffffffff8211171561303e5761303d612fe7565b5b80604052505050565b6000613051612ad0565b905061305d8282613016565b919050565b600067ffffffffffffffff82111561307d5761307c612fe7565b5b61308682612be5565b9050602081019050919050565b82818337600083830152505050565b60006130b56130b084613062565b613047565b9050828152602081018484840111156130d1576130d0612fe2565b5b6130dc848285613093565b509392505050565b600082601f8301126130f9576130f8612fdd565b5b81356131098482602086016130a2565b91505092915050565b6000806000806080858703121561312c5761312b612ada565b5b600061313a87828801612c72565b945050602085013567ffffffffffffffff81111561315b5761315a612adf565b5b613167878288016130e4565b935050604061317887828801612c72565b925050606061318987828801612d27565b91505092959194509250565b61319e81612c51565b82525050565b60006020820190506131b96000830184613195565b92915050565b6000819050919050565b60006131e46131df6131da84612cb4565b6131bf565b612cb4565b9050919050565b60006131f6826131c9565b9050919050565b6000613208826131eb565b9050919050565b613218816131fd565b82525050565b6000602082019050613233600083018461320f565b92915050565b61324281612b69565b811461324d57600080fd5b50565b60008135905061325f81613239565b92915050565b6000806040838503121561327c5761327b612ada565b5b600061328a85828601612d27565b925050602061329b85828601613250565b9150509250929050565b600067ffffffffffffffff8211156132c0576132bf612fe7565b5b6132c982612be5565b9050602081019050919050565b60006132e96132e4846132a5565b613047565b90508281526020810184848401111561330557613304612fe2565b5b613310848285613093565b509392505050565b600082601f83011261332d5761332c612fdd565b5b813561333d8482602086016132d6565b91505092915050565b600080600080608085870312156133605761335f612ada565b5b600061336e87828801612d27565b945050602061337f87828801612d27565b935050604061339087828801612c72565b925050606085013567ffffffffffffffff8111156133b1576133b0612adf565b5b6133bd87828801613318565b91505092959194509250565b600080604083850312156133e0576133df612ada565b5b60006133ee85828601612d27565b92505060206133ff85828601612d27565b9150509250929050565b61341281612e28565b82525050565b600060208201905061342d6000830184613409565b92915050565b600060a0820190506134486000830188613409565b6134556020830187612ce6565b6134626040830186612ce6565b81810360608301526134748185612bf6565b90506134836080830184613195565b9695505050505050565b7f4e487b7100000000000000000000000000000000000000000000000000000000600052602260045260246000fd5b600060028204905060018216806134d457607f821691505b6020821081036134e7576134e661348d565b5b50919050565b60006060820190506135026000830186612ce6565b61350f6020830185613195565b61351c6040830184612ce6565b949350505050565b7f4e487b7100000000000000000000000000000000000000000000000000000000600052601160045260246000fd5b600061355e82612c51565b91507fffffffffffffffffffffffffffffffffffffffffffffffffffffffffffffffff82036135905761358f613524565b5b600182019050919050565b7f4e487b7100000000000000000000000000000000000000000000000000000000600052603260045260246000fd5b6000815190506135d981612c5b565b92915050565b6000602082840312156135f5576135f4612ada565b5b6000613603848285016135ca565b91505092915050565b7f4e6f20656e6f7567682062616c616e6365210000000000000000000000000000600082015250565b6000613642601283612baa565b915061364d8261360c565b602082019050919050565b6000602082019050818103600083015261367181613635565b9050919050565b600060608201905061368d6000830186612ce6565b61369a6020830185612ce6565b6136a76040830184613195565b949350505050565b6000815190506136be81613239565b92915050565b6000602082840312156136da576136d9612ada565b5b60006136e8848285016136af565b91505092915050565b60008190508160005260206000209050919050565b60006020601f8301049050919050565b600082821b905092915050565b6000600883026137537fffffffffffffffffffffffffffffffffffffffffffffffffffffffffffffffff82613716565b61375d8683613716565b95508019841693508086168417925050509392505050565b600061379061378b61378684612c51565b6131bf565b612c51565b9050919050565b6000819050919050565b6137aa83613775565b6137be6137b682613797565b848454613723565b825550505050565b600090565b6137d36137c6565b6137de8184846137a1565b505050565b5b81811015613802576137f76000826137cb565b6001810190506137e4565b5050565b601f82111561384757613818816136f1565b61382184613706565b81016020851015613830578190505b61384461383c85613706565b8301826137e3565b50505b505050565b600082821c905092915050565b600061386a6000198460080261384c565b1980831691505092915050565b60006138838383613859565b9150826002028217905092915050565b61389c82612b9f565b67ffffffffffffffff8111156138b5576138b4612fe7565b5b6138bf82546134bc565b6138ca828285613806565b600060209050601f8311600181146138fd57600084156138eb578287015190505b6138f58582613877565b86555061395d565b601f19841661390b866136f1565b60005b828110156139335784890151825560018201915060208501945060208101905061390e565b86831015613950578489015161394c601f891682613859565b8355505b6001600288020188555050505b505050505050565b7f4e487b7100000000000000000000000000000000000000000000000000000000600052601260045260246000fd5b600061399f82612e28565b91506139aa83612e28565b9250826139ba576139b9613965565b5b828206905092915050565b60006139d082612e28565b915063ffffffff82036139e6576139e5613524565b5b600182019050919050565b600081905092915050565b6000613a0782612b9f565b613a1181856139f1565b9350613a21818560208601612bbb565b80840191505092915050565b6000613a3982856139fc565b9150613a4582846139fc565b91508190509392505050565b600081519050919050565b600082825260208201905092915050565b6000613a7882613a51565b613a828185613a5c565b9350613a92818560208601612bbb565b613a9b81612be5565b840191505092915050565b6000608082019050613abb6000830187612ce6565b613ac86020830186612ce6565b613ad56040830185613195565b8181036060830152613ae78184613a6d565b905095945050505050565b600081519050613b0181612b10565b92915050565b600060208284031215613b1d57613b1c612ada565b5b6000613b2b84828501613af2565b91505092915050565b6000604082019050613b496000830185612ce6565b613b566020830184613195565b939250505056fea26469706673582212209d27a423d0c8d85d94bbe3c0f3b80a985b67b61df5f21027555c45e2947ce36c64736f6c63430008140033",
  "linkReferences": {},
  "deployedLinkReferences": {}
}