{
    "_format": "hh-sol-artifact-1",
    "contractName": "BorrowYourCar",
    "sourceName": "contracts/BorrowYourCar.sol",
    "abi": [
        {
            "inputs": [
                {
                    "internalType": "address",
                    "name": "constractAddress",
                    "type": "address"
                }
            ],
            "stateMutability": "nonpayable",
            "type": "constructor"
        },
        {
            "inputs": [
                {
                    "internalType": "address",
                    "name": "sender",
                    "type": "address"
                },
                {
                    "internalType": "uint256",
                    "name": "tokenId",
                    "type": "uint256"
                },
                {
                    "internalType": "address",
                    "name": "owner",
                    "type": "address"
                }
            ],
            "name": "ERC721IncorrectOwner",
            "type": "error"
        },
        {
            "inputs": [
                {
                    "internalType": "address",
                    "name": "operator",
                    "type": "address"
                },
                {
                    "internalType": "uint256",
                    "name": "tokenId",
                    "type": "uint256"
                }
            ],
            "name": "ERC721InsufficientApproval",
            "type": "error"
        },
        {
            "inputs": [
                {
                    "internalType": "address",
                    "name": "approver",
                    "type": "address"
                }
            ],
            "name": "ERC721InvalidApprover",
            "type": "error"
        },
        {
            "inputs": [
                {
                    "internalType": "address",
                    "name": "operator",
                    "type": "address"
                }
            ],
            "name": "ERC721InvalidOperator",
            "type": "error"
        },
        {
            "inputs": [
                {
                    "internalType": "address",
                    "name": "owner",
                    "type": "address"
                }
            ],
            "name": "ERC721InvalidOwner",
            "type": "error"
        },
        {
            "inputs": [
                {
                    "internalType": "address",
                    "name": "receiver",
                    "type": "address"
                }
            ],
            "name": "ERC721InvalidReceiver",
            "type": "error"
        },
        {
            "inputs": [
                {
                    "internalType": "address",
                    "name": "sender",
                    "type": "address"
                }
            ],
            "name": "ERC721InvalidSender",
            "type": "error"
        },
        {
            "inputs": [
                {
                    "internalType": "uint256",
                    "name": "tokenId",
                    "type": "uint256"
                }
            ],
            "name": "ERC721NonexistentToken",
            "type": "error"
        },
        {
            "anonymous": false,
            "inputs": [
                {
                    "indexed": true,
                    "internalType": "address",
                    "name": "owner",
                    "type": "address"
                },
                {
                    "indexed": true,
                    "internalType": "address",
                    "name": "approved",
                    "type": "address"
                },
                {
                    "indexed": true,
                    "internalType": "uint256",
                    "name": "tokenId",
                    "type": "uint256"
                }
            ],
            "name": "Approval",
            "type": "event"
        },
        {
            "anonymous": false,
            "inputs": [
                {
                    "indexed": true,
                    "internalType": "address",
                    "name": "owner",
                    "type": "address"
                },
                {
                    "indexed": true,
                    "internalType": "address",
                    "name": "operator",
                    "type": "address"
                },
                {
                    "indexed": false,
                    "internalType": "bool",
                    "name": "approved",
                    "type": "bool"
                }
            ],
            "name": "ApprovalForAll",
            "type": "event"
        },
        {
            "anonymous": false,
            "inputs": [
                {
                    "indexed": true,
                    "internalType": "address",
                    "name": "from",
                    "type": "address"
                },
                {
                    "indexed": true,
                    "internalType": "address",
                    "name": "to",
                    "type": "address"
                },
                {
                    "indexed": true,
                    "internalType": "uint256",
                    "name": "tokenId",
                    "type": "uint256"
                }
            ],
            "name": "Transfer",
            "type": "event"
        },
        {
            "inputs": [],
            "name": "ERC20Contract",
            "outputs": [
                {
                    "internalType": "contract MyERC20",
                    "name": "",
                    "type": "address"
                }
            ],
            "stateMutability": "view",
            "type": "function"
        },
        {
            "inputs": [
                {
                    "internalType": "address",
                    "name": "to",
                    "type": "address"
                },
                {
                    "internalType": "uint256",
                    "name": "tokenId",
                    "type": "uint256"
                }
            ],
            "name": "approve",
            "outputs": [],
            "stateMutability": "nonpayable",
            "type": "function"
        },
        {
            "inputs": [
                {
                    "internalType": "address",
                    "name": "owner",
                    "type": "address"
                }
            ],
            "name": "balanceOf",
            "outputs": [
                {
                    "internalType": "uint256",
                    "name": "",
                    "type": "uint256"
                }
            ],
            "stateMutability": "view",
            "type": "function"
        },
        {
            "inputs": [
                {
                    "internalType": "uint256",
                    "name": "carTokenId",
                    "type": "uint256"
                },
                {
                    "internalType": "string",
                    "name": "returnDate",
                    "type": "string"
                },
                {
                    "internalType": "uint256",
                    "name": "price",
                    "type": "uint256"
                }
            ],
            "name": "borrowACar",
            "outputs": [],
            "stateMutability": "nonpayable",
            "type": "function"
        },
        {
            "inputs": [],
            "name": "carCnt",
            "outputs": [
                {
                    "internalType": "uint256",
                    "name": "",
                    "type": "uint256"
                }
            ],
            "stateMutability": "view",
            "type": "function"
        },
        {
            "inputs": [
                {
                    "internalType": "uint256",
                    "name": "",
                    "type": "uint256"
                }
            ],
            "name": "cars",
            "outputs": [
                {
                    "internalType": "address",
                    "name": "owner",
                    "type": "address"
                },
                {
                    "internalType": "address",
                    "name": "borrower",
                    "type": "address"
                },
                {
                    "internalType": "string",
                    "name": "returnDate",
                    "type": "string"
                },
                {
                    "internalType": "uint256",
                    "name": "price",
                    "type": "uint256"
                }
            ],
            "stateMutability": "view",
            "type": "function"
        },
        {
            "inputs": [],
            "name": "getAllCars",
            "outputs": [
                {
                    "components": [
                        {
                            "internalType": "address",
                            "name": "owner",
                            "type": "address"
                        },
                        {
                            "internalType": "address",
                            "name": "borrower",
                            "type": "address"
                        },
                        {
                            "internalType": "string",
                            "name": "returnDate",
                            "type": "string"
                        },
                        {
                            "internalType": "uint256",
                            "name": "price",
                            "type": "uint256"
                        }
                    ],
                    "internalType": "struct BorrowYourCar.Car[]",
                    "name": "",
                    "type": "tuple[]"
                }
            ],
            "stateMutability": "view",
            "type": "function"
        },
        {
            "inputs": [
                {
                    "internalType": "uint256",
                    "name": "tokenId",
                    "type": "uint256"
                }
            ],
            "name": "getApproved",
            "outputs": [
                {
                    "internalType": "address",
                    "name": "",
                    "type": "address"
                }
            ],
            "stateMutability": "view",
            "type": "function"
        },
        {
            "inputs": [
                {
                    "internalType": "address",
                    "name": "account",
                    "type": "address"
                }
            ],
            "name": "getCarsCanBorrow",
            "outputs": [
                {
                    "components": [
                        {
                            "internalType": "address",
                            "name": "owner",
                            "type": "address"
                        },
                        {
                            "internalType": "address",
                            "name": "borrower",
                            "type": "address"
                        },
                        {
                            "internalType": "string",
                            "name": "returnDate",
                            "type": "string"
                        },
                        {
                            "internalType": "uint256",
                            "name": "price",
                            "type": "uint256"
                        }
                    ],
                    "internalType": "struct BorrowYourCar.Car[]",
                    "name": "",
                    "type": "tuple[]"
                }
            ],
            "stateMutability": "view",
            "type": "function"
        },
        {
            "inputs": [
                {
                    "internalType": "address",
                    "name": "account",
                    "type": "address"
                }
            ],
            "name": "getMyCars",
            "outputs": [
                {
                    "components": [
                        {
                            "internalType": "address",
                            "name": "owner",
                            "type": "address"
                        },
                        {
                            "internalType": "address",
                            "name": "borrower",
                            "type": "address"
                        },
                        {
                            "internalType": "string",
                            "name": "returnDate",
                            "type": "string"
                        },
                        {
                            "internalType": "uint256",
                            "name": "price",
                            "type": "uint256"
                        }
                    ],
                    "internalType": "struct BorrowYourCar.Car[]",
                    "name": "",
                    "type": "tuple[]"
                }
            ],
            "stateMutability": "view",
            "type": "function"
        },
        {
            "inputs": [
                {
                    "internalType": "address",
                    "name": "account",
                    "type": "address"
                }
            ],
            "name": "getMyborrowedCars",
            "outputs": [
                {
                    "components": [
                        {
                            "internalType": "address",
                            "name": "owner",
                            "type": "address"
                        },
                        {
                            "internalType": "address",
                            "name": "borrower",
                            "type": "address"
                        },
                        {
                            "internalType": "string",
                            "name": "returnDate",
                            "type": "string"
                        },
                        {
                            "internalType": "uint256",
                            "name": "price",
                            "type": "uint256"
                        }
                    ],
                    "internalType": "struct BorrowYourCar.Car[]",
                    "name": "",
                    "type": "tuple[]"
                }
            ],
            "stateMutability": "view",
            "type": "function"
        },
        {
            "inputs": [
                {
                    "internalType": "address",
                    "name": "owner",
                    "type": "address"
                },
                {
                    "internalType": "address",
                    "name": "operator",
                    "type": "address"
                }
            ],
            "name": "isApprovedForAll",
            "outputs": [
                {
                    "internalType": "bool",
                    "name": "",
                    "type": "bool"
                }
            ],
            "stateMutability": "view",
            "type": "function"
        },
        {
            "inputs": [
                {
                    "internalType": "address",
                    "name": "account",
                    "type": "address"
                }
            ],
            "name": "mintCarNFT",
            "outputs": [],
            "stateMutability": "nonpayable",
            "type": "function"
        },
        {
            "inputs": [],
            "name": "name",
            "outputs": [
                {
                    "internalType": "string",
                    "name": "",
                    "type": "string"
                }
            ],
            "stateMutability": "view",
            "type": "function"
        },
        {
            "inputs": [
                {
                    "internalType": "uint256",
                    "name": "tokenId",
                    "type": "uint256"
                }
            ],
            "name": "ownerOf",
            "outputs": [
                {
                    "internalType": "address",
                    "name": "",
                    "type": "address"
                }
            ],
            "stateMutability": "view",
            "type": "function"
        },
        {
            "inputs": [
                {
                    "internalType": "address",
                    "name": "from",
                    "type": "address"
                },
                {
                    "internalType": "address",
                    "name": "to",
                    "type": "address"
                },
                {
                    "internalType": "uint256",
                    "name": "tokenId",
                    "type": "uint256"
                }
            ],
            "name": "safeTransferFrom",
            "outputs": [],
            "stateMutability": "nonpayable",
            "type": "function"
        },
        {
            "inputs": [
                {
                    "internalType": "address",
                    "name": "from",
                    "type": "address"
                },
                {
                    "internalType": "address",
                    "name": "to",
                    "type": "address"
                },
                {
                    "internalType": "uint256",
                    "name": "tokenId",
                    "type": "uint256"
                },
                {
                    "internalType": "bytes",
                    "name": "data",
                    "type": "bytes"
                }
            ],
            "name": "safeTransferFrom",
            "outputs": [],
            "stateMutability": "nonpayable",
            "type": "function"
        },
        {
            "inputs": [
                {
                    "internalType": "address",
                    "name": "operator",
                    "type": "address"
                },
                {
                    "internalType": "bool",
                    "name": "approved",
                    "type": "bool"
                }
            ],
            "name": "setApprovalForAll",
            "outputs": [],
            "stateMutability": "nonpayable",
            "type": "function"
        },
        {
            "inputs": [
                {
                    "internalType": "bytes4",
                    "name": "interfaceId",
                    "type": "bytes4"
                }
            ],
            "name": "supportsInterface",
            "outputs": [
                {
                    "internalType": "bool",
                    "name": "",
                    "type": "bool"
                }
            ],
            "stateMutability": "view",
            "type": "function"
        },
        {
            "inputs": [],
            "name": "symbol",
            "outputs": [
                {
                    "internalType": "string",
                    "name": "",
                    "type": "string"
                }
            ],
            "stateMutability": "view",
            "type": "function"
        },
        {
            "inputs": [
                {
                    "internalType": "uint256",
                    "name": "tokenId",
                    "type": "uint256"
                }
            ],
            "name": "tokenURI",
            "outputs": [
                {
                    "internalType": "string",
                    "name": "",
                    "type": "string"
                }
            ],
            "stateMutability": "view",
            "type": "function"
        },
        {
            "inputs": [
                {
                    "internalType": "address",
                    "name": "from",
                    "type": "address"
                },
                {
                    "internalType": "address",
                    "name": "to",
                    "type": "address"
                },
                {
                    "internalType": "uint256",
                    "name": "tokenId",
                    "type": "uint256"
                }
            ],
            "name": "transferFrom",
            "outputs": [],
            "stateMutability": "nonpayable",
            "type": "function"
        }
    ],
    "bytecode": "0x60806040526040518060c00160405280606461ffff168152602001607b61ffff16815260200160fa61ffff16815260200161012c61ffff168152602001602861ffff168152602001603261ffff1681525060099060066200006292919062000170565b503480156200007057600080fd5b5060405162003f0a38038062003f0a833981810160405281019062000096919062000251565b6040518060400160405280600681526020017f4361724e465400000000000000000000000000000000000000000000000000008152506040518060400160405280600381526020017f43415200000000000000000000000000000000000000000000000000000000008152508160009081620001139190620004fd565b508060019081620001259190620004fd565b50505080600760006101000a81548173ffffffffffffffffffffffffffffffffffffffff021916908373ffffffffffffffffffffffffffffffffffffffff16021790555050620005e4565b828054828255906000526020600020908101928215620001b5579160200282015b82811115620001b4578251829061ffff1690559160200191906001019062000191565b5b509050620001c49190620001c8565b5090565b5b80821115620001e3576000816000905550600101620001c9565b5090565b600080fd5b600073ffffffffffffffffffffffffffffffffffffffff82169050919050565b60006200021982620001ec565b9050919050565b6200022b816200020c565b81146200023757600080fd5b50565b6000815190506200024b8162000220565b92915050565b6000602082840312156200026a5762000269620001e7565b5b60006200027a848285016200023a565b91505092915050565b600081519050919050565b7f4e487b7100000000000000000000000000000000000000000000000000000000600052604160045260246000fd5b7f4e487b7100000000000000000000000000000000000000000000000000000000600052602260045260246000fd5b600060028204905060018216806200030557607f821691505b6020821081036200031b576200031a620002bd565b5b50919050565b60008190508160005260206000209050919050565b60006020601f8301049050919050565b600082821b905092915050565b600060088302620003857fffffffffffffffffffffffffffffffffffffffffffffffffffffffffffffffff8262000346565b62000391868362000346565b95508019841693508086168417925050509392505050565b6000819050919050565b6000819050919050565b6000620003de620003d8620003d284620003a9565b620003b3565b620003a9565b9050919050565b6000819050919050565b620003fa83620003bd565b620004126200040982620003e5565b84845462000353565b825550505050565b600090565b620004296200041a565b62000436818484620003ef565b505050565b5b818110156200045e57620004526000826200041f565b6001810190506200043c565b5050565b601f821115620004ad57620004778162000321565b620004828462000336565b8101602085101562000492578190505b620004aa620004a18562000336565b8301826200043b565b50505b505050565b600082821c905092915050565b6000620004d260001984600802620004b2565b1980831691505092915050565b6000620004ed8383620004bf565b9150826002028217905092915050565b620005088262000283565b67ffffffffffffffff8111156200052457620005236200028e565b5b620005308254620002ec565b6200053d82828562000462565b600060209050601f83116001811462000575576000841562000560578287015190505b6200056c8582620004df565b865550620005dc565b601f198416620005858662000321565b60005b82811015620005af5784890151825560018201915060208501945060208101905062000588565b86831015620005cf5784890151620005cb601f891682620004bf565b8355505b6001600288020188555050505b505050505050565b61391680620005f46000396000f3fe608060405234801561001057600080fd5b50600436106101425760003560e01c806395d89b41116100b8578063b88d4fde1161007c578063b88d4fde1461039b578063c87b56dd146103b7578063d5289200146103e7578063e985e9c514610403578063f6e6e23814610433578063f7746e361461045157610142565b806395d89b41146102f7578063a22cb46514610315578063a61aed0914610331578063abfe5d5714610361578063af4bdb691461037f57610142565b80633add07ea1161010a5780633add07ea146101fd57806342842e0e1461022d5780634af8b07d146102495780636352211e1461027957806370a08231146102a95780637996f571146102d957610142565b806301ffc9a71461014757806306fdde0314610177578063081812fc14610195578063095ea7b3146101c557806323b872dd146101e1575b600080fd5b610161600480360381019061015c9190612927565b610484565b60405161016e919061296f565b60405180910390f35b61017f610566565b60405161018c9190612a1a565b60405180910390f35b6101af60048036038101906101aa9190612a72565b6105f8565b6040516101bc9190612ae0565b60405180910390f35b6101df60048036038101906101da9190612b27565b610614565b005b6101fb60048036038101906101f69190612b67565b61062a565b005b61021760048036038101906102129190612bba565b61072c565b6040516102249190612d74565b60405180910390f35b61024760048036038101906102429190612b67565b610a47565b005b610263600480360381019061025e9190612bba565b610a67565b6040516102709190612d74565b60405180910390f35b610293600480360381019061028e9190612a72565b610d82565b6040516102a09190612ae0565b60405180910390f35b6102c360048036038101906102be9190612bba565b610d94565b6040516102d09190612da5565b60405180910390f35b6102e1610e4e565b6040516102ee9190612e1f565b60405180910390f35b6102ff610e74565b60405161030c9190612a1a565b60405180910390f35b61032f600480360381019061032a9190612e66565b610f06565b005b61034b60048036038101906103469190612bba565b610f1c565b6040516103589190612d74565b60405180910390f35b610369611317565b6040516103769190612d74565b60405180910390f35b61039960048036038101906103949190612bba565b61151f565b005b6103b560048036038101906103b09190612fdb565b6116bb565b005b6103d160048036038101906103cc9190612a72565b6116d8565b6040516103de9190612a1a565b60405180910390f35b61040160048036038101906103fc91906130ff565b611741565b005b61041d6004803603810190610418919061316e565b611994565b60405161042a919061296f565b60405180910390f35b61043b611a28565b6040516104489190612da5565b60405180910390f35b61046b60048036038101906104669190612a72565b611a2e565b60405161047b94939291906131ae565b60405180910390f35b60007f80ac58cd000000000000000000000000000000000000000000000000000000007bffffffffffffffffffffffffffffffffffffffffffffffffffffffff1916827bffffffffffffffffffffffffffffffffffffffffffffffffffffffff1916148061054f57507f5b5e139f000000000000000000000000000000000000000000000000000000007bffffffffffffffffffffffffffffffffffffffffffffffffffffffff1916827bffffffffffffffffffffffffffffffffffffffffffffffffffffffff1916145b8061055f575061055e82611b26565b5b9050919050565b60606000805461057590613229565b80601f01602080910402602001604051908101604052809291908181526020018280546105a190613229565b80156105ee5780601f106105c3576101008083540402835291602001916105ee565b820191906000526020600020905b8154815290600101906020018083116105d157829003601f168201915b5050505050905090565b600061060382611b90565b5061060d82611c18565b9050919050565b6106268282610621611c55565b611c5d565b5050565b600073ffffffffffffffffffffffffffffffffffffffff168273ffffffffffffffffffffffffffffffffffffffff160361069c5760006040517f64a0ae920000000000000000000000000000000000000000000000000000000081526004016106939190612ae0565b60405180910390fd5b60006106b083836106ab611c55565b611c6f565b90508373ffffffffffffffffffffffffffffffffffffffff168173ffffffffffffffffffffffffffffffffffffffff1614610726578382826040517f64283d7b00000000000000000000000000000000000000000000000000000000815260040161071d9392919061325a565b60405180910390fd5b50505050565b60606000805b6008548110156107c7578373ffffffffffffffffffffffffffffffffffffffff166006600083815260200190815260200160002060010160009054906101000a900473ffffffffffffffffffffffffffffffffffffffff1673ffffffffffffffffffffffffffffffffffffffff16036107b45781806107b0906132c0565b9250505b80806107bf906132c0565b915050610732565b506000808267ffffffffffffffff8111156107e5576107e4612eb0565b5b60405190808252806020026020018201604052801561081e57816020015b61080b612867565b8152602001906001900390816108035790505b50905060005b600854811015610a3b578573ffffffffffffffffffffffffffffffffffffffff166006600083815260200190815260200160002060010160009054906101000a900473ffffffffffffffffffffffffffffffffffffffff1673ffffffffffffffffffffffffffffffffffffffff1603610a2857600660008281526020019081526020016000206040518060800160405290816000820160009054906101000a900473ffffffffffffffffffffffffffffffffffffffff1673ffffffffffffffffffffffffffffffffffffffff1673ffffffffffffffffffffffffffffffffffffffff1681526020016001820160009054906101000a900473ffffffffffffffffffffffffffffffffffffffff1673ffffffffffffffffffffffffffffffffffffffff1673ffffffffffffffffffffffffffffffffffffffff16815260200160028201805461097190613229565b80601f016020809104026020016040519081016040528092919081815260200182805461099d90613229565b80156109ea5780601f106109bf576101008083540402835291602001916109ea565b820191906000526020600020905b8154815290600101906020018083116109cd57829003601f168201915b50505050508152602001600382015481525050828480610a09906132c0565b955081518110610a1c57610a1b613308565b5b60200260200101819052505b8080610a33906132c0565b915050610824565b50809350505050919050565b610a62838383604051806020016040528060008152506116bb565b505050565b60606000805b600854811015610b02578373ffffffffffffffffffffffffffffffffffffffff166006600083815260200190815260200160002060000160009054906101000a900473ffffffffffffffffffffffffffffffffffffffff1673ffffffffffffffffffffffffffffffffffffffff1603610aef578180610aeb906132c0565b9250505b8080610afa906132c0565b915050610a6d565b506000808267ffffffffffffffff811115610b2057610b1f612eb0565b5b604051908082528060200260200182016040528015610b5957816020015b610b46612867565b815260200190600190039081610b3e5790505b50905060005b600854811015610d76578573ffffffffffffffffffffffffffffffffffffffff166006600083815260200190815260200160002060000160009054906101000a900473ffffffffffffffffffffffffffffffffffffffff1673ffffffffffffffffffffffffffffffffffffffff1603610d6357600660008281526020019081526020016000206040518060800160405290816000820160009054906101000a900473ffffffffffffffffffffffffffffffffffffffff1673ffffffffffffffffffffffffffffffffffffffff1673ffffffffffffffffffffffffffffffffffffffff1681526020016001820160009054906101000a900473ffffffffffffffffffffffffffffffffffffffff1673ffffffffffffffffffffffffffffffffffffffff1673ffffffffffffffffffffffffffffffffffffffff168152602001600282018054610cac90613229565b80601f0160208091040260200160405190810160405280929190818152602001828054610cd890613229565b8015610d255780601f10610cfa57610100808354040283529160200191610d25565b820191906000526020600020905b815481529060010190602001808311610d0857829003601f168201915b50505050508152602001600382015481525050828480610d44906132c0565b955081518110610d5757610d56613308565b5b60200260200101819052505b8080610d6e906132c0565b915050610b5f565b50809350505050919050565b6000610d8d82611b90565b9050919050565b60008073ffffffffffffffffffffffffffffffffffffffff168273ffffffffffffffffffffffffffffffffffffffff1603610e075760006040517f89c62b64000000000000000000000000000000000000000000000000000000008152600401610dfe9190612ae0565b60405180910390fd5b600360008373ffffffffffffffffffffffffffffffffffffffff1673ffffffffffffffffffffffffffffffffffffffff168152602001908152602001600020549050919050565b600760009054906101000a900473ffffffffffffffffffffffffffffffffffffffff1681565b606060018054610e8390613229565b80601f0160208091040260200160405190810160405280929190818152602001828054610eaf90613229565b8015610efc5780601f10610ed157610100808354040283529160200191610efc565b820191906000526020600020905b815481529060010190602001808311610edf57829003601f168201915b5050505050905090565b610f18610f11611c55565b8383611e89565b5050565b60606000805b600854811015611027578373ffffffffffffffffffffffffffffffffffffffff166006600083815260200190815260200160002060000160009054906101000a900473ffffffffffffffffffffffffffffffffffffffff1673ffffffffffffffffffffffffffffffffffffffff16141580156110005750600073ffffffffffffffffffffffffffffffffffffffff166006600083815260200190815260200160002060010160009054906101000a900473ffffffffffffffffffffffffffffffffffffffff1673ffffffffffffffffffffffffffffffffffffffff16145b15611014578180611010906132c0565b9250505b808061101f906132c0565b915050610f22565b506000808267ffffffffffffffff81111561104557611044612eb0565b5b60405190808252806020026020018201604052801561107e57816020015b61106b612867565b8152602001906001900390816110635790505b50905060005b60085481101561130b578573ffffffffffffffffffffffffffffffffffffffff166006600083815260200190815260200160002060000160009054906101000a900473ffffffffffffffffffffffffffffffffffffffff1673ffffffffffffffffffffffffffffffffffffffff16141580156111625750600073ffffffffffffffffffffffffffffffffffffffff166006600083815260200190815260200160002060010160009054906101000a900473ffffffffffffffffffffffffffffffffffffffff1673ffffffffffffffffffffffffffffffffffffffff16145b156112f857600660008281526020019081526020016000206040518060800160405290816000820160009054906101000a900473ffffffffffffffffffffffffffffffffffffffff1673ffffffffffffffffffffffffffffffffffffffff1673ffffffffffffffffffffffffffffffffffffffff1681526020016001820160009054906101000a900473ffffffffffffffffffffffffffffffffffffffff1673ffffffffffffffffffffffffffffffffffffffff1673ffffffffffffffffffffffffffffffffffffffff16815260200160028201805461124190613229565b80601f016020809104026020016040519081016040528092919081815260200182805461126d90613229565b80156112ba5780601f1061128f576101008083540402835291602001916112ba565b820191906000526020600020905b81548152906001019060200180831161129d57829003601f168201915b505050505081526020016003820154815250508284806112d9906132c0565b9550815181106112ec576112eb613308565b5b60200260200101819052505b8080611303906132c0565b915050611084565b50809350505050919050565b6060600060085467ffffffffffffffff81111561133757611336612eb0565b5b60405190808252806020026020018201604052801561137057816020015b61135d612867565b8152602001906001900390816113555790505b50905060005b60085481101561151757600660008281526020019081526020016000206040518060800160405290816000820160009054906101000a900473ffffffffffffffffffffffffffffffffffffffff1673ffffffffffffffffffffffffffffffffffffffff1673ffffffffffffffffffffffffffffffffffffffff1681526020016001820160009054906101000a900473ffffffffffffffffffffffffffffffffffffffff1673ffffffffffffffffffffffffffffffffffffffff1673ffffffffffffffffffffffffffffffffffffffff16815260200160028201805461145a90613229565b80601f016020809104026020016040519081016040528092919081815260200182805461148690613229565b80156114d35780601f106114a8576101008083540402835291602001916114d3565b820191906000526020600020905b8154815290600101906020018083116114b657829003601f168201915b505050505081526020016003820154815250508282815181106114f9576114f8613308565b5b6020026020010181905250808061150f906132c0565b915050611376565b508091505090565b60405180608001604052808273ffffffffffffffffffffffffffffffffffffffff168152602001600073ffffffffffffffffffffffffffffffffffffffff1681526020016040518060400160405280600381526020017f2d2d2d00000000000000000000000000000000000000000000000000000000008152508152602001600960066008546115af9190613366565b815481106115c0576115bf613308565b5b906000526020600020015481525060066000600854815260200190815260200160002060008201518160000160006101000a81548173ffffffffffffffffffffffffffffffffffffffff021916908373ffffffffffffffffffffffffffffffffffffffff16021790555060208201518160010160006101000a81548173ffffffffffffffffffffffffffffffffffffffff021916908373ffffffffffffffffffffffffffffffffffffffff16021790555060408201518160020190816116869190613539565b50606082015181600301559050506116a081600854611ff8565b600860008154809291906116b3906132c0565b919050555050565b6116c684848461062a565b6116d2848484846120f1565b50505050565b60606116e382611b90565b5060006116ee6122a8565b9050600081511161170e5760405180602001604052806000815250611739565b80611718846122bf565b604051602001611729929190613647565b6040516020818303038152906040525b915050919050565b60648161174e919061366b565b600760009054906101000a900473ffffffffffffffffffffffffffffffffffffffff1673ffffffffffffffffffffffffffffffffffffffff166327e235e3336040518263ffffffff1660e01b81526004016117a99190612ae0565b602060405180830381865afa1580156117c6573d6000803e3d6000fd5b505050506040513d601f19601f820116820180604052508101906117ea91906136c2565b101561182b576040517f08c379a00000000000000000000000000000000000000000000000000000000081526004016118229061373b565b60405180910390fd5b60006006600085815260200190815260200160002060000160009054906101000a900473ffffffffffffffffffffffffffffffffffffffff169050600760009054906101000a900473ffffffffffffffffffffffffffffffffffffffff1673ffffffffffffffffffffffffffffffffffffffff1663beabacc833836064866118b3919061366b565b6040518463ffffffff1660e01b81526004016118d19392919061375b565b6020604051808303816000875af11580156118f0573d6000803e3d6000fd5b505050506040513d601f19601f8201168201806040525081019061191491906137a7565b50336006600086815260200190815260200160002060010160006101000a81548173ffffffffffffffffffffffffffffffffffffffff021916908373ffffffffffffffffffffffffffffffffffffffff1602179055508260066000868152602001908152602001600020600201908161198d9190613539565b5050505050565b6000600560008473ffffffffffffffffffffffffffffffffffffffff1673ffffffffffffffffffffffffffffffffffffffff16815260200190815260200160002060008373ffffffffffffffffffffffffffffffffffffffff1673ffffffffffffffffffffffffffffffffffffffff16815260200190815260200160002060009054906101000a900460ff16905092915050565b60085481565b60066020528060005260406000206000915090508060000160009054906101000a900473ffffffffffffffffffffffffffffffffffffffff16908060010160009054906101000a900473ffffffffffffffffffffffffffffffffffffffff1690806002018054611a9d90613229565b80601f0160208091040260200160405190810160405280929190818152602001828054611ac990613229565b8015611b165780601f10611aeb57610100808354040283529160200191611b16565b820191906000526020600020905b815481529060010190602001808311611af957829003601f168201915b5050505050908060030154905084565b60007f01ffc9a7000000000000000000000000000000000000000000000000000000007bffffffffffffffffffffffffffffffffffffffffffffffffffffffff1916827bffffffffffffffffffffffffffffffffffffffffffffffffffffffff1916149050919050565b600080611b9c8361238d565b9050600073ffffffffffffffffffffffffffffffffffffffff168173ffffffffffffffffffffffffffffffffffffffff1603611c0f57826040517f7e273289000000000000000000000000000000000000000000000000000000008152600401611c069190612da5565b60405180910390fd5b80915050919050565b60006004600083815260200190815260200160002060009054906101000a900473ffffffffffffffffffffffffffffffffffffffff169050919050565b600033905090565b611c6a83838360016123ca565b505050565b600080611c7b8461238d565b9050600073ffffffffffffffffffffffffffffffffffffffff168373ffffffffffffffffffffffffffffffffffffffff1614611cbd57611cbc81848661258f565b5b600073ffffffffffffffffffffffffffffffffffffffff168173ffffffffffffffffffffffffffffffffffffffff1614611d4e57611cff6000856000806123ca565b6001600360008373ffffffffffffffffffffffffffffffffffffffff1673ffffffffffffffffffffffffffffffffffffffff168152602001908152602001600020600082825403925050819055505b600073ffffffffffffffffffffffffffffffffffffffff168573ffffffffffffffffffffffffffffffffffffffff1614611dd1576001600360008773ffffffffffffffffffffffffffffffffffffffff1673ffffffffffffffffffffffffffffffffffffffff168152602001908152602001600020600082825401925050819055505b846002600086815260200190815260200160002060006101000a81548173ffffffffffffffffffffffffffffffffffffffff021916908373ffffffffffffffffffffffffffffffffffffffff160217905550838573ffffffffffffffffffffffffffffffffffffffff168273ffffffffffffffffffffffffffffffffffffffff167fddf252ad1be2c89b69c2b068fc378daa952ba7f163c4a11628f55a4df523b3ef60405160405180910390a4809150509392505050565b600073ffffffffffffffffffffffffffffffffffffffff168273ffffffffffffffffffffffffffffffffffffffff1603611efa57816040517f5b08ba18000000000000000000000000000000000000000000000000000000008152600401611ef19190612ae0565b60405180910390fd5b80600560008573ffffffffffffffffffffffffffffffffffffffff1673ffffffffffffffffffffffffffffffffffffffff16815260200190815260200160002060008473ffffffffffffffffffffffffffffffffffffffff1673ffffffffffffffffffffffffffffffffffffffff16815260200190815260200160002060006101000a81548160ff0219169083151502179055508173ffffffffffffffffffffffffffffffffffffffff168373ffffffffffffffffffffffffffffffffffffffff167f17307eab39ab6107e8899845ad3d59bd9653f200f220920489ca2b5937696c3183604051611feb919061296f565b60405180910390a3505050565b600073ffffffffffffffffffffffffffffffffffffffff168273ffffffffffffffffffffffffffffffffffffffff160361206a5760006040517f64a0ae920000000000000000000000000000000000000000000000000000000081526004016120619190612ae0565b60405180910390fd5b600061207883836000611c6f565b9050600073ffffffffffffffffffffffffffffffffffffffff168173ffffffffffffffffffffffffffffffffffffffff16146120ec5760006040517f73c6ac6e0000000000000000000000000000000000000000000000000000000081526004016120e39190612ae0565b60405180910390fd5b505050565b60008373ffffffffffffffffffffffffffffffffffffffff163b11156122a2578273ffffffffffffffffffffffffffffffffffffffff1663150b7a02612135611c55565b8685856040518563ffffffff1660e01b81526004016121579493929190613829565b6020604051808303816000875af192505050801561219357506040513d601f19601f82011682018060405250810190612190919061388a565b60015b612217573d80600081146121c3576040519150601f19603f3d011682016040523d82523d6000602084013e6121c8565b606091505b50600081510361220f57836040517f64a0ae920000000000000000000000000000000000000000000000000000000081526004016122069190612ae0565b60405180910390fd5b805181602001fd5b63150b7a0260e01b7bffffffffffffffffffffffffffffffffffffffffffffffffffffffff1916817bffffffffffffffffffffffffffffffffffffffffffffffffffffffff1916146122a057836040517f64a0ae920000000000000000000000000000000000000000000000000000000081526004016122979190612ae0565b60405180910390fd5b505b50505050565b606060405180602001604052806000815250905090565b6060600060016122ce84612653565b01905060008167ffffffffffffffff8111156122ed576122ec612eb0565b5b6040519080825280601f01601f19166020018201604052801561231f5781602001600182028036833780820191505090505b509050600082602001820190505b600115612382578080600190039150507f3031323334353637383961626364656600000000000000000000000000000000600a86061a8153600a858161237657612375613337565b5b0494506000850361232d575b819350505050919050565b60006002600083815260200190815260200160002060009054906101000a900473ffffffffffffffffffffffffffffffffffffffff169050919050565b80806124035750600073ffffffffffffffffffffffffffffffffffffffff168273ffffffffffffffffffffffffffffffffffffffff1614155b1561253757600061241384611b90565b9050600073ffffffffffffffffffffffffffffffffffffffff168373ffffffffffffffffffffffffffffffffffffffff161415801561247e57508273ffffffffffffffffffffffffffffffffffffffff168173ffffffffffffffffffffffffffffffffffffffff1614155b8015612491575061248f8184611994565b155b156124d357826040517fa9fbf51f0000000000000000000000000000000000000000000000000000000081526004016124ca9190612ae0565b60405180910390fd5b811561253557838573ffffffffffffffffffffffffffffffffffffffff168273ffffffffffffffffffffffffffffffffffffffff167f8c5be1e5ebec7d5bd14f71427d1e84f3dd0314c0f7b2291e5b200ac8c7c3b92560405160405180910390a45b505b836004600085815260200190815260200160002060006101000a81548173ffffffffffffffffffffffffffffffffffffffff021916908373ffffffffffffffffffffffffffffffffffffffff16021790555050505050565b61259a8383836127a6565b61264e57600073ffffffffffffffffffffffffffffffffffffffff168373ffffffffffffffffffffffffffffffffffffffff160361260f57806040517f7e2732890000000000000000000000000000000000000000000000000000000081526004016126069190612da5565b60405180910390fd5b81816040517f177e802f0000000000000000000000000000000000000000000000000000000081526004016126459291906138b7565b60405180910390fd5b505050565b600080600090507a184f03e93ff9f4daa797ed6e38ed64bf6a1f01000000000000000083106126b1577a184f03e93ff9f4daa797ed6e38ed64bf6a1f01000000000000000083816126a7576126a6613337565b5b0492506040810190505b6d04ee2d6d415b85acef810000000083106126ee576d04ee2d6d415b85acef810000000083816126e4576126e3613337565b5b0492506020810190505b662386f26fc10000831061271d57662386f26fc10000838161271357612712613337565b5b0492506010810190505b6305f5e1008310612746576305f5e100838161273c5761273b613337565b5b0492506008810190505b612710831061276b57612710838161276157612760613337565b5b0492506004810190505b6064831061278e576064838161278457612783613337565b5b0492506002810190505b600a831061279d576001810190505b80915050919050565b60008073ffffffffffffffffffffffffffffffffffffffff168373ffffffffffffffffffffffffffffffffffffffff161415801561285e57508273ffffffffffffffffffffffffffffffffffffffff168473ffffffffffffffffffffffffffffffffffffffff16148061281f575061281e8484611994565b5b8061285d57508273ffffffffffffffffffffffffffffffffffffffff1661284583611c18565b73ffffffffffffffffffffffffffffffffffffffff16145b5b90509392505050565b6040518060800160405280600073ffffffffffffffffffffffffffffffffffffffff168152602001600073ffffffffffffffffffffffffffffffffffffffff16815260200160608152602001600081525090565b6000604051905090565b600080fd5b600080fd5b60007fffffffff0000000000000000000000000000000000000000000000000000000082169050919050565b612904816128cf565b811461290f57600080fd5b50565b600081359050612921816128fb565b92915050565b60006020828403121561293d5761293c6128c5565b5b600061294b84828501612912565b91505092915050565b60008115159050919050565b61296981612954565b82525050565b60006020820190506129846000830184612960565b92915050565b600081519050919050565b600082825260208201905092915050565b60005b838110156129c45780820151818401526020810190506129a9565b60008484015250505050565b6000601f19601f8301169050919050565b60006129ec8261298a565b6129f68185612995565b9350612a068185602086016129a6565b612a0f816129d0565b840191505092915050565b60006020820190508181036000830152612a3481846129e1565b905092915050565b6000819050919050565b612a4f81612a3c565b8114612a5a57600080fd5b50565b600081359050612a6c81612a46565b92915050565b600060208284031215612a8857612a876128c5565b5b6000612a9684828501612a5d565b91505092915050565b600073ffffffffffffffffffffffffffffffffffffffff82169050919050565b6000612aca82612a9f565b9050919050565b612ada81612abf565b82525050565b6000602082019050612af56000830184612ad1565b92915050565b612b0481612abf565b8114612b0f57600080fd5b50565b600081359050612b2181612afb565b92915050565b60008060408385031215612b3e57612b3d6128c5565b5b6000612b4c85828601612b12565b9250506020612b5d85828601612a5d565b9150509250929050565b600080600060608486031215612b8057612b7f6128c5565b5b6000612b8e86828701612b12565b9350506020612b9f86828701612b12565b9250506040612bb086828701612a5d565b9150509250925092565b600060208284031215612bd057612bcf6128c5565b5b6000612bde84828501612b12565b91505092915050565b600081519050919050565b600082825260208201905092915050565b6000819050602082019050919050565b612c1c81612abf565b82525050565b600082825260208201905092915050565b6000612c3e8261298a565b612c488185612c22565b9350612c588185602086016129a6565b612c61816129d0565b840191505092915050565b612c7581612a3c565b82525050565b6000608083016000830151612c936000860182612c13565b506020830151612ca66020860182612c13565b5060408301518482036040860152612cbe8282612c33565b9150506060830151612cd36060860182612c6c565b508091505092915050565b6000612cea8383612c7b565b905092915050565b6000602082019050919050565b6000612d0a82612be7565b612d148185612bf2565b935083602082028501612d2685612c03565b8060005b85811015612d625784840389528151612d438582612cde565b9450612d4e83612cf2565b925060208a01995050600181019050612d2a565b50829750879550505050505092915050565b60006020820190508181036000830152612d8e8184612cff565b905092915050565b612d9f81612a3c565b82525050565b6000602082019050612dba6000830184612d96565b92915050565b6000819050919050565b6000612de5612de0612ddb84612a9f565b612dc0565b612a9f565b9050919050565b6000612df782612dca565b9050919050565b6000612e0982612dec565b9050919050565b612e1981612dfe565b82525050565b6000602082019050612e346000830184612e10565b92915050565b612e4381612954565b8114612e4e57600080fd5b50565b600081359050612e6081612e3a565b92915050565b60008060408385031215612e7d57612e7c6128c5565b5b6000612e8b85828601612b12565b9250506020612e9c85828601612e51565b9150509250929050565b600080fd5b600080fd5b7f4e487b7100000000000000000000000000000000000000000000000000000000600052604160045260246000fd5b612ee8826129d0565b810181811067ffffffffffffffff82111715612f0757612f06612eb0565b5b80604052505050565b6000612f1a6128bb565b9050612f268282612edf565b919050565b600067ffffffffffffffff821115612f4657612f45612eb0565b5b612f4f826129d0565b9050602081019050919050565b82818337600083830152505050565b6000612f7e612f7984612f2b565b612f10565b905082815260208101848484011115612f9a57612f99612eab565b5b612fa5848285612f5c565b509392505050565b600082601f830112612fc257612fc1612ea6565b5b8135612fd2848260208601612f6b565b91505092915050565b60008060008060808587031215612ff557612ff46128c5565b5b600061300387828801612b12565b945050602061301487828801612b12565b935050604061302587828801612a5d565b925050606085013567ffffffffffffffff811115613046576130456128ca565b5b61305287828801612fad565b91505092959194509250565b600067ffffffffffffffff82111561307957613078612eb0565b5b613082826129d0565b9050602081019050919050565b60006130a261309d8461305e565b612f10565b9050828152602081018484840111156130be576130bd612eab565b5b6130c9848285612f5c565b509392505050565b600082601f8301126130e6576130e5612ea6565b5b81356130f684826020860161308f565b91505092915050565b600080600060608486031215613118576131176128c5565b5b600061312686828701612a5d565b935050602084013567ffffffffffffffff811115613147576131466128ca565b5b613153868287016130d1565b925050604061316486828701612a5d565b9150509250925092565b60008060408385031215613185576131846128c5565b5b600061319385828601612b12565b92505060206131a485828601612b12565b9150509250929050565b60006080820190506131c36000830187612ad1565b6131d06020830186612ad1565b81810360408301526131e281856129e1565b90506131f16060830184612d96565b95945050505050565b7f4e487b7100000000000000000000000000000000000000000000000000000000600052602260045260246000fd5b6000600282049050600182168061324157607f821691505b602082108103613254576132536131fa565b5b50919050565b600060608201905061326f6000830186612ad1565b61327c6020830185612d96565b6132896040830184612ad1565b949350505050565b7f4e487b7100000000000000000000000000000000000000000000000000000000600052601160045260246000fd5b60006132cb82612a3c565b91507fffffffffffffffffffffffffffffffffffffffffffffffffffffffffffffffff82036132fd576132fc613291565b5b600182019050919050565b7f4e487b7100000000000000000000000000000000000000000000000000000000600052603260045260246000fd5b7f4e487b7100000000000000000000000000000000000000000000000000000000600052601260045260246000fd5b600061337182612a3c565b915061337c83612a3c565b92508261338c5761338b613337565b5b828206905092915050565b60008190508160005260206000209050919050565b60006020601f8301049050919050565b600082821b905092915050565b6000600883026133f97fffffffffffffffffffffffffffffffffffffffffffffffffffffffffffffffff826133bc565b61340386836133bc565b95508019841693508086168417925050509392505050565b600061343661343161342c84612a3c565b612dc0565b612a3c565b9050919050565b6000819050919050565b6134508361341b565b61346461345c8261343d565b8484546133c9565b825550505050565b600090565b61347961346c565b613484818484613447565b505050565b5b818110156134a85761349d600082613471565b60018101905061348a565b5050565b601f8211156134ed576134be81613397565b6134c7846133ac565b810160208510156134d6578190505b6134ea6134e2856133ac565b830182613489565b50505b505050565b600082821c905092915050565b6000613510600019846008026134f2565b1980831691505092915050565b600061352983836134ff565b9150826002028217905092915050565b6135428261298a565b67ffffffffffffffff81111561355b5761355a612eb0565b5b6135658254613229565b6135708282856134ac565b600060209050601f8311600181146135a35760008415613591578287015190505b61359b858261351d565b865550613603565b601f1984166135b186613397565b60005b828110156135d9578489015182556001820191506020850194506020810190506135b4565b868310156135f657848901516135f2601f8916826134ff565b8355505b6001600288020188555050505b505050505050565b600081905092915050565b60006136218261298a565b61362b818561360b565b935061363b8185602086016129a6565b80840191505092915050565b60006136538285613616565b915061365f8284613616565b91508190509392505050565b600061367682612a3c565b915061368183612a3c565b925082820261368f81612a3c565b915082820484148315176136a6576136a5613291565b5b5092915050565b6000815190506136bc81612a46565b92915050565b6000602082840312156136d8576136d76128c5565b5b60006136e6848285016136ad565b91505092915050565b7f4e6f20656e6f7567682062616c616e6365210000000000000000000000000000600082015250565b6000613725601283612995565b9150613730826136ef565b602082019050919050565b6000602082019050818103600083015261375481613718565b9050919050565b60006060820190506137706000830186612ad1565b61377d6020830185612ad1565b61378a6040830184612d96565b949350505050565b6000815190506137a181612e3a565b92915050565b6000602082840312156137bd576137bc6128c5565b5b60006137cb84828501613792565b91505092915050565b600081519050919050565b600082825260208201905092915050565b60006137fb826137d4565b61380581856137df565b93506138158185602086016129a6565b61381e816129d0565b840191505092915050565b600060808201905061383e6000830187612ad1565b61384b6020830186612ad1565b6138586040830185612d96565b818103606083015261386a81846137f0565b905095945050505050565b600081519050613884816128fb565b92915050565b6000602082840312156138a05761389f6128c5565b5b60006138ae84828501613875565b91505092915050565b60006040820190506138cc6000830185612ad1565b6138d96020830184612d96565b939250505056fea2646970667358221220726471a248478d2fc627cceaefcf10e2c038c6180ceb15daebe6cd03b36d519c64736f6c63430008140033",
    "linkReferences": {},
    "deployedLinkReferences": {}
}